{
  "_format": "hh-sol-artifact-1",
  "contractName": "UtilityApp",
  "sourceName": "contracts/utilityApp.sol",
  "abi": [
    {
      "inputs": [
        {
          "internalType": "address",
          "name": "walletAddress",
          "type": "address"
        }
      ],
      "name": "checkUserExists",
      "outputs": [
        {
          "internalType": "bool",
          "name": "",
          "type": "bool"
        }
      ],
      "stateMutability": "view",
      "type": "function"
    },
    {
      "inputs": [
        {
          "internalType": "string",
          "name": "userName",
          "type": "string"
        },
        {
          "internalType": "string",
          "name": "_RSA_Public_Key",
          "type": "string"
        }
      ],
      "name": "createAccount",
      "outputs": [],
      "stateMutability": "nonpayable",
      "type": "function"
    },
    {
      "inputs": [
        {
          "internalType": "string",
          "name": "username",
          "type": "string"
        }
      ],
      "name": "findUser",
      "outputs": [
        {
          "components": [
            {
              "internalType": "string",
              "name": "name",
              "type": "string"
            },
            {
              "internalType": "address",
              "name": "userAddress",
              "type": "address"
            },
            {
              "internalType": "string",
              "name": "RSA_Key",
              "type": "string"
            }
          ],
          "internalType": "struct UtilityApp.user",
          "name": "",
          "type": "tuple"
        }
      ],
      "stateMutability": "view",
      "type": "function"
    },
    {
      "inputs": [
        {
          "internalType": "address",
          "name": "to",
          "type": "address"
        }
      ],
      "name": "readMessage",
      "outputs": [
        {
          "components": [
            {
              "internalType": "address",
              "name": "sender",
              "type": "address"
            },
            {
              "internalType": "uint256",
              "name": "timestamp",
              "type": "uint256"
            },
            {
              "internalType": "string",
              "name": "msg",
              "type": "string"
            },
            {
              "internalType": "string",
              "name": "msgType",
              "type": "string"
            }
          ],
          "internalType": "struct UtilityApp.message[]",
          "name": "",
          "type": "tuple[]"
        }
      ],
      "stateMutability": "view",
      "type": "function"
    },
    {
      "inputs": [
        {
          "internalType": "address",
          "name": "to",
          "type": "address"
        },
        {
          "internalType": "string",
          "name": "_msg",
          "type": "string"
        },
        {
          "internalType": "string",
          "name": "msgType",
          "type": "string"
        }
      ],
      "name": "sendMessage",
      "outputs": [],
      "stateMutability": "nonpayable",
      "type": "function"
    },
    {
      "inputs": [
        {
          "internalType": "string",
          "name": "newRSAkey",
          "type": "string"
        }
      ],
      "name": "updateRSAkey",
      "outputs": [],
      "stateMutability": "nonpayable",
      "type": "function"
    },
    {
      "inputs": [
        {
          "internalType": "address",
          "name": "",
          "type": "address"
        }
      ],
      "name": "userList",
      "outputs": [
        {
          "internalType": "string",
          "name": "name",
          "type": "string"
        },
        {
          "internalType": "address",
          "name": "userAddress",
          "type": "address"
        },
        {
          "internalType": "string",
          "name": "RSA_Key",
          "type": "string"
        }
      ],
      "stateMutability": "view",
      "type": "function"
    },
    {
      "inputs": [],
      "name": "viewRSAKey",
      "outputs": [
        {
          "internalType": "string",
          "name": "",
          "type": "string"
        }
      ],
      "stateMutability": "view",
      "type": "function"
    }
  ],
  "bytecode": "0x608060405234801561001057600080fd5b50611baf806100206000396000f3fe608060405234801561001057600080fd5b50600436106100885760003560e01c80632006b1c21161005b5780632006b1c214610127578063255e9c11146101575780636a291dce146101875780636fb6df43146101a557610088565b8063133f50f51461008d57806317eac796146100bd57806319289287146100d95780631b4e7bd2146100f5575b600080fd5b6100a760048036038101906100a29190610e7a565b6101c1565b6040516100b49190610ec2565b60405180910390f35b6100d760048036038101906100d29190611023565b61021a565b005b6100f360048036038101906100ee91906110cc565b6102bb565b005b61010f600480360381019061010a9190610e7a565b610485565b60405161011e939291906111d6565b60405180910390f35b610141600480360381019061013c9190611023565b6105df565b60405161014e91906112cb565b60405180910390f35b610171600480360381019061016c9190610e7a565b6107f5565b60405161017e9190611432565b60405180910390f35b61018f610a42565b60405161019c9190611454565b60405180910390f35b6101bf60048036038101906101ba9190611476565b610b13565b005b6000806000808473ffffffffffffffffffffffffffffffffffffffff1673ffffffffffffffffffffffffffffffffffffffff16815260200190815260200160002060000180546102109061153a565b9050119050919050565b60011515610227336101c1565b151514610269576040517f08c379a0000000000000000000000000000000000000000000000000000000008152600401610260906115b7565b60405180910390fd5b806000803373ffffffffffffffffffffffffffffffffffffffff1673ffffffffffffffffffffffffffffffffffffffff16815260200190815260200160002060020190816102b79190611783565b5050565b60008383905011610301576040517f08c379a00000000000000000000000000000000000000000000000000000000081526004016102f8906118a1565b60405180910390fd5b82826000803373ffffffffffffffffffffffffffffffffffffffff1673ffffffffffffffffffffffffffffffffffffffff16815260200190815260200160002060000191826103519291906118cc565b50336000803373ffffffffffffffffffffffffffffffffffffffff1673ffffffffffffffffffffffffffffffffffffffff16815260200190815260200160002060010160006101000a81548173ffffffffffffffffffffffffffffffffffffffff021916908373ffffffffffffffffffffffffffffffffffffffff160217905550806000803373ffffffffffffffffffffffffffffffffffffffff1673ffffffffffffffffffffffffffffffffffffffff16815260200190815260200160002060020190816104209190611783565b5033600184846040516104349291906119cc565b908152602001604051809103902060006101000a81548173ffffffffffffffffffffffffffffffffffffffff021916908373ffffffffffffffffffffffffffffffffffffffff160217905550505050565b60006020528060005260406000206000915090508060000180546104a89061153a565b80601f01602080910402602001604051908101604052809291908181526020018280546104d49061153a565b80156105215780601f106104f657610100808354040283529160200191610521565b820191906000526020600020905b81548152906001019060200180831161050457829003601f168201915b5050505050908060010160009054906101000a900473ffffffffffffffffffffffffffffffffffffffff169080600201805461055c9061153a565b80601f01602080910402602001604051908101604052809291908181526020018280546105889061153a565b80156105d55780601f106105aa576101008083540402835291602001916105d5565b820191906000526020600020905b8154815290600101906020018083116105b857829003601f168201915b5050505050905083565b6105e7610dd1565b60006001836040516105f99190611a16565b908152602001604051809103902060009054906101000a900473ffffffffffffffffffffffffffffffffffffffff1690506000808273ffffffffffffffffffffffffffffffffffffffff1673ffffffffffffffffffffffffffffffffffffffff1681526020019081526020016000206040518060600160405290816000820180546106839061153a565b80601f01602080910402602001604051908101604052809291908181526020018280546106af9061153a565b80156106fc5780601f106106d1576101008083540402835291602001916106fc565b820191906000526020600020905b8154815290600101906020018083116106df57829003601f168201915b505050505081526020016001820160009054906101000a900473ffffffffffffffffffffffffffffffffffffffff1673ffffffffffffffffffffffffffffffffffffffff1673ffffffffffffffffffffffffffffffffffffffff16815260200160028201805461076b9061153a565b80601f01602080910402602001604051908101604052809291908181526020018280546107979061153a565b80156107e45780601f106107b9576101008083540402835291602001916107e4565b820191906000526020600020905b8154815290600101906020018083116107c757829003601f168201915b505050505081525050915050919050565b6060610800336101c1565b61083f576040517f08c379a000000000000000000000000000000000000000000000000000000000815260040161083690611a79565b60405180910390fd5b600061084b3384610d39565b905060026000828152602001908152602001600020805480602002602001604051908101604052809291908181526020016000905b82821015610a3657838290600052602060002090600402016040518060800160405290816000820160009054906101000a900473ffffffffffffffffffffffffffffffffffffffff1673ffffffffffffffffffffffffffffffffffffffff1673ffffffffffffffffffffffffffffffffffffffff168152602001600182015481526020016002820180546109139061153a565b80601f016020809104026020016040519081016040528092919081815260200182805461093f9061153a565b801561098c5780601f106109615761010080835404028352916020019161098c565b820191906000526020600020905b81548152906001019060200180831161096f57829003601f168201915b505050505081526020016003820180546109a59061153a565b80601f01602080910402602001604051908101604052809291908181526020018280546109d19061153a565b8015610a1e5780601f106109f357610100808354040283529160200191610a1e565b820191906000526020600020905b815481529060010190602001808311610a0157829003601f168201915b50505050508152505081526020019060010190610880565b50505050915050919050565b60606000803373ffffffffffffffffffffffffffffffffffffffff1673ffffffffffffffffffffffffffffffffffffffff1681526020019081526020016000206002018054610a909061153a565b80601f0160208091040260200160405190810160405280929190818152602001828054610abc9061153a565b8015610b095780601f10610ade57610100808354040283529160200191610b09565b820191906000526020600020905b815481529060010190602001808311610aec57829003601f168201915b5050505050905090565b610b1c336101c1565b610b5b576040517f08c379a0000000000000000000000000000000000000000000000000000000008152600401610b5290611a79565b60405180910390fd5b610b64856101c1565b610ba3576040517f08c379a0000000000000000000000000000000000000000000000000000000008152600401610b9a90611ae5565b60405180910390fd5b6000610baf3387610d39565b9050600060405180608001604052803373ffffffffffffffffffffffffffffffffffffffff16815260200142815260200187878080601f016020809104026020016040519081016040528093929190818152602001838380828437600081840152601f19601f82011690508083019250505050505050815260200185858080601f016020809104026020016040519081016040528093929190818152602001838380828437600081840152601f19601f8201169050808301925050505050505081525090506002600083815260200190815260200160002081908060018154018082558091505060019003906000526020600020906004020160009091909190915060008201518160000160006101000a81548173ffffffffffffffffffffffffffffffffffffffff021916908373ffffffffffffffffffffffffffffffffffffffff160217905550602082015181600101556040820151816002019081610d179190611783565b506060820151816003019081610d2d9190611783565b50505050505050505050565b60008173ffffffffffffffffffffffffffffffffffffffff168373ffffffffffffffffffffffffffffffffffffffff161015610d9f578282604051602001610d82929190611b4d565b604051602081830303815290604052805190602001209050610dcb565b8183604051602001610db2929190611b4d565b6040516020818303038152906040528051906020012090505b92915050565b604051806060016040528060608152602001600073ffffffffffffffffffffffffffffffffffffffff168152602001606081525090565b6000604051905090565b600080fd5b600080fd5b600073ffffffffffffffffffffffffffffffffffffffff82169050919050565b6000610e4782610e1c565b9050919050565b610e5781610e3c565b8114610e6257600080fd5b50565b600081359050610e7481610e4e565b92915050565b600060208284031215610e9057610e8f610e12565b5b6000610e9e84828501610e65565b91505092915050565b60008115159050919050565b610ebc81610ea7565b82525050565b6000602082019050610ed76000830184610eb3565b92915050565b600080fd5b600080fd5b6000601f19601f8301169050919050565b7f4e487b7100000000000000000000000000000000000000000000000000000000600052604160045260246000fd5b610f3082610ee7565b810181811067ffffffffffffffff82111715610f4f57610f4e610ef8565b5b80604052505050565b6000610f62610e08565b9050610f6e8282610f27565b919050565b600067ffffffffffffffff821115610f8e57610f8d610ef8565b5b610f9782610ee7565b9050602081019050919050565b82818337600083830152505050565b6000610fc6610fc184610f73565b610f58565b905082815260208101848484011115610fe257610fe1610ee2565b5b610fed848285610fa4565b509392505050565b600082601f83011261100a57611009610edd565b5b813561101a848260208601610fb3565b91505092915050565b60006020828403121561103957611038610e12565b5b600082013567ffffffffffffffff81111561105757611056610e17565b5b61106384828501610ff5565b91505092915050565b600080fd5b600080fd5b60008083601f84011261108c5761108b610edd565b5b8235905067ffffffffffffffff8111156110a9576110a861106c565b5b6020830191508360018202830111156110c5576110c4611071565b5b9250929050565b6000806000604084860312156110e5576110e4610e12565b5b600084013567ffffffffffffffff81111561110357611102610e17565b5b61110f86828701611076565b9350935050602084013567ffffffffffffffff81111561113257611131610e17565b5b61113e86828701610ff5565b9150509250925092565b600081519050919050565b600082825260208201905092915050565b60005b83811015611182578082015181840152602081019050611167565b60008484015250505050565b600061119982611148565b6111a38185611153565b93506111b3818560208601611164565b6111bc81610ee7565b840191505092915050565b6111d081610e3c565b82525050565b600060608201905081810360008301526111f0818661118e565b90506111ff60208301856111c7565b8181036040830152611211818461118e565b9050949350505050565b600082825260208201905092915050565b600061123782611148565b611241818561121b565b9350611251818560208601611164565b61125a81610ee7565b840191505092915050565b61126e81610e3c565b82525050565b60006060830160008301518482036000860152611291828261122c565b91505060208301516112a66020860182611265565b50604083015184820360408601526112be828261122c565b9150508091505092915050565b600060208201905081810360008301526112e58184611274565b905092915050565b600081519050919050565b600082825260208201905092915050565b6000819050602082019050919050565b6000819050919050565b61132c81611319565b82525050565b600060808301600083015161134a6000860182611265565b50602083015161135d6020860182611323565b5060408301518482036040860152611375828261122c565b9150506060830151848203606086015261138f828261122c565b9150508091505092915050565b60006113a88383611332565b905092915050565b6000602082019050919050565b60006113c8826112ed565b6113d281856112f8565b9350836020820285016113e485611309565b8060005b858110156114205784840389528151611401858261139c565b945061140c836113b0565b925060208a019950506001810190506113e8565b50829750879550505050505092915050565b6000602082019050818103600083015261144c81846113bd565b905092915050565b6000602082019050818103600083015261146e818461118e565b905092915050565b60008060008060006060868803121561149257611491610e12565b5b60006114a088828901610e65565b955050602086013567ffffffffffffffff8111156114c1576114c0610e17565b5b6114cd88828901611076565b9450945050604086013567ffffffffffffffff8111156114f0576114ef610e17565b5b6114fc88828901611076565b92509250509295509295909350565b7f4e487b7100000000000000000000000000000000000000000000000000000000600052602260045260246000fd5b6000600282049050600182168061155257607f821691505b6020821081036115655761156461150b565b5b50919050565b7f63616c6c6572206973206e6f74206d656d626572000000000000000000000000600082015250565b60006115a1601483611153565b91506115ac8261156b565b602082019050919050565b600060208201905081810360008301526115d081611594565b9050919050565b60008190508160005260206000209050919050565b60006020601f8301049050919050565b600082821b905092915050565b6000600883026116397fffffffffffffffffffffffffffffffffffffffffffffffffffffffffffffffff826115fc565b61164386836115fc565b95508019841693508086168417925050509392505050565b6000819050919050565b600061168061167b61167684611319565b61165b565b611319565b9050919050565b6000819050919050565b61169a83611665565b6116ae6116a682611687565b848454611609565b825550505050565b600090565b6116c36116b6565b6116ce818484611691565b505050565b5b818110156116f2576116e76000826116bb565b6001810190506116d4565b5050565b601f82111561173757611708816115d7565b611711846115ec565b81016020851015611720578190505b61173461172c856115ec565b8301826116d3565b50505b505050565b600082821c905092915050565b600061175a6000198460080261173c565b1980831691505092915050565b60006117738383611749565b9150826002028217905092915050565b61178c82611148565b67ffffffffffffffff8111156117a5576117a4610ef8565b5b6117af825461153a565b6117ba8282856116f6565b600060209050601f8311600181146117ed57600084156117db578287015190505b6117e58582611767565b86555061184d565b601f1984166117fb866115d7565b60005b82811015611823578489015182556001820191506020850194506020810190506117fe565b86831015611840578489015161183c601f891682611749565b8355505b6001600288020188555050505b505050505050565b7f557365726e616d652063616e6e6f7420626520656d7074792100000000000000600082015250565b600061188b601983611153565b915061189682611855565b602082019050919050565b600060208201905081810360008301526118ba8161187e565b9050919050565b600082905092915050565b6118d683836118c1565b67ffffffffffffffff8111156118ef576118ee610ef8565b5b6118f9825461153a565b6119048282856116f6565b6000601f8311600181146119335760008415611921578287013590505b61192b8582611767565b865550611993565b601f198416611941866115d7565b60005b8281101561196957848901358255600182019150602085019450602081019050611944565b868310156119865784890135611982601f891682611749565b8355505b6001600288020188555050505b50505050505050565b600081905092915050565b60006119b3838561199c565b93506119c0838584610fa4565b82840190509392505050565b60006119d98284866119a7565b91508190509392505050565b60006119f082611148565b6119fa818561199c565b9350611a0a818560208601611164565b80840191505092915050565b6000611a2282846119e5565b915081905092915050565b7f43726561746520616e206163636f756e74206669727374210000000000000000600082015250565b6000611a63601883611153565b9150611a6e82611a2d565b602082019050919050565b60006020820190508181036000830152611a9281611a56565b9050919050565b7f55736572206973206e6f74207265676973746572656421000000000000000000600082015250565b6000611acf601783611153565b9150611ada82611a99565b602082019050919050565b60006020820190508181036000830152611afe81611ac2565b9050919050565b60008160601b9050919050565b6000611b1d82611b05565b9050919050565b6000611b2f82611b12565b9050919050565b611b47611b4282610e3c565b611b24565b82525050565b6000611b598285611b36565b601482019150611b698284611b36565b601482019150819050939250505056fea26469706673582212209d35823070979d378b9dd37556af69381ff2db3dc1e40e490a88250a62bdc89a64736f6c63430008100033",
  "linkReferences": {},
  "deployedLinkReferences": {}
}